:100000000C942A000C9447000C9447000C94470071
:100010000C9447000C9447000C9447000C94470044
:100020000C9447000C9447000C9447000C94470034
:100030000C9447000C9447000C9447000C94470024
:100040000C9447000C9447000C9447000C94470014
:100050000C94470011241FBECFE5D8E0DEBFCDBF12
:1000600010E0A0E6B0E0EAEEF1E102C005900D92EA
:10007000A43AB107D9F725E0A4EAB0E001C01D9287
:10008000A03CB207E1F70E9449070C94F3080C94D6
:100090000000813041F028F0823039F0833039F0AF
:1000A00008956ABB089567BB089564BB089561BB5A
:1000B0000895813041F028F0823039F0833039F0F2
:1000C00008956BBB089568BB089565BB089562BB36
:1000D0000895813049F030F0823041F0833041F4AE
:1000E00080B3089589B3089586B3089583B30895BE
:1000F00080E008950E944E0387EA91E60197F1F7A8
:1001000000C00000C091A400CE7F2091A4000C2F5D
:1001100010E0822F90E08E7F019680179107F4F017
:1001200080916900C817C0F4C21719F049E750E080
:1001300002C046E750E0DC2FD1706D2F80E00E94B6
:100140007103000F111FF801ED59FF4F40815181DC
:100150006D2F81E00E947103CF5FD7CF87EA91E6D0
:100160000197F1F700C000000E9405038230F9F00A
:10017000843019F0813059F511C08091A40081308C
:1001800051F030F0823009F0B5CF0E941C05B2CF9B
:100190000E94B706AFCF0E945401ACCF8091A4005B
:1001A000882309F4A7CF81508093A400A3CF209186
:1001B000A400422F50E08091690090E00197481719
:1001C00059070CF097CF2F5F2093A40093CF88237B
:1001D00059F290CFCF93C82F0E944E0387EA91E641
:1001E0000197F1F700C00000ECE7F0E02AE08C2F67
:1001F000622F0E945E07905D96870E945E07905D69
:1002000095878C2F64E60E945E07805D8487AF012E
:1002100060E080E00E9471039FE72AE186E0915050
:1002200020408040E1F700C00000CF910895AF92D8
:10023000BF92CF92DF92EF92FF920F931F93CF93D3
:10024000DF93B62EA42EE82E0CEF1FEF009F600167
:10025000019FD00CD00C1124FB2CCCEFDFEFCC9FF6
:10026000C001CD9F900D900D11248C0D9D1D4097C8
:100270002CF44A2D6F2D8E2D0E94A1042196F3940B
:10028000C430D10561F70F5F1F4FE39404301105AF
:10029000E9F6DF91CF911F910F91FF90EF90DF90E2
:1002A000CF90BF90AF9008957F928F929F92AF9220
:1002B000BF92CF92DF92EF92FF920F931F93CF9353
:1002C000DF930E949D030E94BA030E94E6031092EE
:1002D000A70080916D0086958B508093A8000E94A6
:1002E0007A0820916C0030E028523109032E000C6E
:1002F000440B550B0E947E07665F6093A900C09176
:10030000A700CF5FC093A700D0E0CC0FDD1FC8557A
:10031000DF4F80916D008B5088830E947A08209176
:100320006C0030E028523109032E000C440B550BB1
:100330000E947E07665F6983C091A700CF5FC0936C
:10034000A700D0E080916D00CC0FDD1FC855DF4FB6
:10035000982F96958B50890F88830E947A08209158
:100360006C0030E028523109032E000C440B550B71
:100370000E947E07665F6983C091A700CF5FC0932C
:10038000A700D0E080916D00CC0FDD1FC855DF4F76
:10039000880F8B5088830E947A0820916C0030E08F
:1003A00028523109032E000C440B550B0E947E0786
:1003B000665F69838091A7008F5F8093A700C0E08C
:1003C00060916C00C617C8F48091A9008C1748F49E
:1003D00090E043962C2F30E08217930714F0CF5F04
:1003E000EFCFD0E08091A80041E06C2F8D0F0E94EC
:1003F000A104DF5FDA30B1F7F2CF66956093B10008
:100400001092B00041E089E10E94170181E08093E1
:10041000A6001092A5009EEF892E2FE0C22ED12CAF
:10042000E12CF12C8091A600882309F4DDC00E9404
:100430000503813029F0853029F41092A60002C00E
:100440008092B00040E06091B10089E10E94170104
:100450006091B100643028F48091B00087FD109263
:10046000B0002091B000620F6093B100462F50E0C1
:1004700080916C0090E00A974817590714F0109289
:10048000A6002F5F2093B00041E089E10E94170190
:10049000912C8091A700981608F0A3C0C92DD0E038
:1004A000CC0FDD1FFE01E855FF4F80818150808316
:1004B000712C8F015F018FEFA81AB80A80916C0030
:1004C000781608F03FC0F5018081871538F490E078
:1004D0004396272D30E08217930794F5F801808129
:1004E00020916D0030E0482F50E042175307BCF4D4
:1004F0008B30A8F041E0672D0E94A10480916D002F
:10050000482F50E04A505109F801208130E024176B
:1005100035072CF041E0672D81500E94A104F801BD
:100520008081482F50E0475F5F4F20916D0030E0A1
:10053000421753072CF440E0672D865F0E94A10408
:100540007394BCCFC855DF4F488181EF840F82314F
:10055000D0F42091B10030E0898190E0B901681BAE
:10056000790B161617062CF44496821B930B0997E9
:1005700014F41092A6004F3091F58091A5008F5F82
:100580008093A5002CC041112AC02091B100809118
:10059000B000082E000C990B820F911D2091A50030
:1005A000820F911D0E9424080E947A0810916D000C
:1005B000110F1A51A70196010E947E07160F18838A
:1005C0000E947A0820916C0030E028523109032EF5
:1005D000000C440B550B0E947E07665F6983939461
:1005E00058CF0E9415041ECF8091A500DF91CF91B6
:1005F0001F910F91FF90EF90DF90CF90BF90AF9041
:100600009F908F907F900C94EA0083E00E94690095
:1006100086FF16C083E00E94690085FF13C083E057
:100620000E94690084FF10C083E00E94690083FF7C
:100630000DC083E00E94690082FF0AC080E0089537
:1006400084E0089581E0089583E0089582E00895AC
:1006500085E00895CF93C82F64E080E00E945900A0
:100660006C2F81E00E9459008CE08A95F1F760E0E0
:1006700080E0CF910C945900CF93C82F65E080E0C3
:100680000E9459006C2F81E00E9459008CE08A95ED
:10069000F1F761E080E0CF910C9459008CE00E946A
:1006A0002A038AE08A95F1F780E30E942A039AE000
:1006B0009A95F1F781E00E942A0381EE94E0019778
:1006C000F1F700C0000082E00E942A0393E09A95AF
:1006D000F1F7000086E00E942A038AE08A95F1F78C
:1006E00008950F931F93CF93DF9390916D0096958C
:1006F000969596958917E0F490916C009295969551
:1007000097706917A8F48A0190E1699F800D112400
:1007100080580E942A03E8018991882349F00E94A9
:100720003C0383EC99E00197F1F700C00000F4CF9F
:10073000DF91CF911F910F91089581E00E942A03CC
:1007400081EE94E00197F1F700C0000088E00E947C
:100750002A039AE09A95F1F786E30E942A0388E13A
:100760008A95F1F783E00E942A0393E09A95F1F7C6
:1007700000000895CF93DF9360916C0066957091AF
:100780006D0076957695E2EFF0E020E030E02617F8
:10079000D0F480E090E0A901440F551F4E545F4F04
:1007A000871768F4DF01A80FB91F1C92A82FA29524
:1007B000AF70EA01CA0FD11D18820196F1CF2F5FE9
:1007C0003F4FB096E4CFDF91CF9108950F931F93E1
:1007D000CF93DF93C0E080916C008695C81700F539
:1007E00080916A008C0F0E942A0380916B000E9406
:1007F0002A03D0E080E2C89F800111240E501F4FD1
:1008000080916D0086958695D81740F4F801ED0F1C
:10081000F11D80810E943C03DF5FF2CFCF5FDBCF11
:10082000DF91CF911F910F910895CF92DF92EF92B8
:10083000FF920F931F93CF93DF93E12C80916C0075
:100840008695E81608F047C0F12C0E2D10E0C8017F
:10085000880F991F9C012E543F4F690135E0000F0E
:10086000111F3A95E1F70E501F4F80916D0086954C
:1008700086958695F81668F58F2D869586958695CA
:10088000F601E80FF11D808190E0CF2DD0E09E01B0
:10089000209530952770332702C0959587952A9526
:1008A000E2F780FF14C080916A008E0D0E942A0337
:1008B00080916B008F0D0E942A03CC0FDD1FC00FAB
:1008C000D11F88810E943C0389810E943C03F394DC
:1008D000CCCFE394B3CF90916D0092959695969579
:1008E0009370E2EBF0E020E0281751F0911103C083
:1008F0002F5F3296F9CF10829130D1F31182F8CF69
:10090000DF91CF911F910F91FF90EF90DF90CF90EB
:100910000895E82F862F90916C00692F66950E94AC
:100920005E07F0E030E1839FE00DF11D112480E2CD
:10093000989FE00DF11D1124EE50FF4F408321835D
:100940000895282F862F90916C00692F66950E943C
:100950005E0730916D00839F200D1124822F292F77
:1009600030E0982F969596959695682F70E0F9014E
:1009700055E0EE0FFF1F5A95E1F7EE50FF4FE90FDC
:10098000F11D6095709567707727413049F441E01B
:1009900050E001C0440F6A95EAF79081492B09C0E5
:1009A00041E050E001C0440F6A95EAF7409590811C
:1009B00049234083F901EE0FFF1FEE54FF4F87FDDF
:1009C000319682958F7090E08095909587709927E9
:1009D00021E030E0A90102C0440F551F8A95E2F7DB
:1009E000CA019081892B80830895282F862F9091AA
:1009F0006C00692F66950E945E0730916D00839FA1
:100A0000200D1124822F86958695869530E2939F3E
:100A1000F0011124EE50FF4FE80FF11D808190E0AE
:100A200030E0209530952770332702C09595879543
:100A30002A95E2F7817008955F926F927F928F926C
:100A40009F92AF92BF92CF92DF92EF92FF920F935D
:100A50001F93CF93DF930E949D030E94BA030E94CD
:100A6000E60390906C00C92DC695C695D0916D0097
:100A7000D695969481E08093A6008091A600882365
:100A800009F470C00E940503833029F128F48130F5
:100A9000B1F0823021F126C0843029F0853011F583
:100AA0001092A6001FC02D2F30E080916D0090E0C5
:100AB0008C1B910928173907ACF4DF5F13C02D2F69
:100AC00030E080916D0090E08C1B91092817390768
:100AD0004CF4CF5F07C0CD1728F4D15003C0C2300B
:100AE00008F0C1500C2F10E07801EE0CFF1CCC9FD9
:100AF000500111248D2E8C1A7C2E7D1A6C2E6918B3
:100B0000872D880D90E08E159F054CF5801B910B6D
:100B1000889F6001899FD00CD00C1124592C5C1A3D
:100B2000862D850D90E08E159F05BCF4801B910BE2
:100B3000889F9001899F300D300D1124C9018C0DC3
:100B40009D1DA816B90614F041E001C040E0652DD6
:100B5000882D0E94A1045394E3CF8394D1CF0E94A7
:100B600015048BCFDF91CF911F910F91FF90EF90E4
:100B7000DF90CF90BF90AF909F908F907F906F90BD
:100B80005F9008950F931F93CF93DF93C0E0809100
:100B90006C00C81718F5D0E00C2F10E080916D00A4
:100BA000D817D0F4CC2389F0DD2379F020916C00A4
:100BB00030E0215031090217130739F02D2F30E0B2
:100BC00090E001972817390729F441E06C2F8D2F09
:100BD0000E94A104DF5FE2CFCF5FD9CFDF91CF9139
:100BE0001F910F910895CF93DF93E091F204F0E00D
:100BF000EE0FFF1FDF01AC50BB4FDC911196CC9183
:100C000011978091BD05813049F030F0823059F064
:100C1000833061F481E008C08FEF01C081E08C0F68
:100C200011968C9303C08FEF8D0F8C93EC50FB4F7C
:100C3000618180810E94F5048130F1F5E091F20438
:100C4000F0E08091F3049091BE05EE0FFF1FEC5091
:100C5000FB4F208128132DC0818189132AC09091D8
:100C6000BF059F5F9093BF05E091BC05F0E090E069
:100C7000820F911DEE0FFF1FEC50FB4F2081820F62
:100C8000911D2181820F911D0E9424080E941F083E
:100C90006EE770E00E946A078F5F8093F3040E9402
:100CA0001F086EE370E00E946A078F5F8093BE05A5
:100CB00019C01092A60016C0E091BC05F0E0EE0F3E
:100CC000FF1FEC50FB4F40E0618180810E94A10436
:100CD0008091BC058F5F843619F08093BC0502C0FB
:100CE0001092BC05E091F204EF5FE093F204E43669
:100CF00079F41092F2048091BA058093F404809103
:100D0000BB058093F504D093BA05C093BB0513C00F
:100D1000F0E0DF01AA0FBB1FAE50BB4F8C91EE0F6E
:100D2000FF1FEC50FB4F808311968C9111978183AC
:100D3000DC931196CC93E091F204F0E0EE0FFF1FEC
:100D4000EC50FB4F41E0618180810E94A10441E0B1
:100D50006091BE058091F3040E94A1048091BF05BB
:100D6000843611F41092A600DF91CF910895CF93AD
:100D70000E949D030E94BA030E94E6030E94C205DE
:100D80008AE08093BF051092BD058EE18093F30445
:100D90008093BE051092A6001092BC0589E0809356
:100DA000F204E4EFF4E08FEF80838183329625E054
:100DB000EC3BF207C9F7C0E0E091BF05CE17A8F4FD
:100DC000F0E0EC1BF10980916D008695EE0FFF1F9E
:100DD000EE50FB4F808360916C0066956C0F6183D1
:100DE00041E00E94A104CF5FE7CF41E06091BE05E2
:100DF0008091F3040E94A1040E9415048FE39DE0FA
:100E000023E0815090402040E1F700C0000081E0E5
:100E10008093A600C1E08091A6008823A1F10E94E2
:100E200005038330D9F028F4813089F08230D9F07D
:100E30001FC0843029F08530D9F41092A60018C064
:100E40008091BD058330A1F0C093BD0511C0809194
:100E5000BD05823069F01092BD050AC09091BD05B4
:100E6000913021F405C09091BD0591118093BD058D
:100E70000E94F3050E94150481EF9BE20197F1F7B0
:100E800000C00000C8CF8091BF058A50CF910C945C
:100E9000EA006FEF81E00E94490067E080E00E9475
:100EA000490060E083E00E9449006CE783E00E9413
:100EB00059000E947A0080E090E00895991B79E043
:100EC00004C0991F961708F0961B881F7A95C9F7DA
:100ED0008095089597FB072E16F4009407D077FDB0
:100EE00009D00E949D0707FC05D03EF4909581959E
:100EF0009F4F0895709561957F4F0895052E97FB3C
:100F00001EF400940E94950757FD07D00E94B10778
:100F100007FC03D04EF40C949507509540953095FE
:100F200021953F4F4F4F5F4F089590958095709555
:100F300061957F4F8F4F9F4F0895AA1BBB1B51E1B7
:100F400007C0AA1FBB1FA617B70710F0A61BB70B39
:100F5000881F991F5A95A9F780959095BC01CD01DE
:100F60000895A1E21A2EAA1BBB1BFD010DC0AA1FEA
:100F7000BB1FEE1FFF1FA217B307E407F50720F002
:100F8000A21BB30BE40BF50B661F771F881F991F7D
:100F90001A9469F760957095809590959B01AC01C6
:100FA000BD01CF0108958F929F92AF92BF92CF92D1
:100FB000DF92EF92FF92CF93DF93EC01688179810A
:100FC0008A819B81611571058105910521F464E297
:100FD00079ED8BE597E02DE133EF41E050E00E94A1
:100FE0007E0749015A019B01AC01A7EAB1E40E94C6
:100FF000D1086B017C01ACEEB4EFA50194010E9415
:10100000DF08DC01CB018C0D9D1DAE1DBF1DB7FFA0
:1010100003C00197A109B04888839983AA83BB8341
:101020009F77DF91CF91FF90EF90DF90CF90BF90AF
:10103000AF909F908F9008950E94D30708958EE6F9
:1010400090E00E94D3070895A0E0B0E080936E0086
:1010500090936F00A0937000B093710008958F92E9
:101060009F92AF92BF92CF92DF92EF92FF92CF9377
:10107000DF93EC01688179818A819B81611571051B
:101080008105910521F464E279ED8BE597E02DE18E
:1010900033EF41E050E00E947E0749015A019B0175
:1010A000AC01A7EAB1E40E94D1086B017C01ACEE6F
:1010B000B4EFA50194010E94DF08DC01CB018C0D87
:1010C0009D1DAE1DBF1DB7FF03C00197A109B0480C
:1010D00088839983AA83BB83BC01CD019F77DF916D
:1010E000CF91FF90EF90DF90CF90BF90AF909F9007
:1010F0008F9008958F929F92AF92BF92CF92DF927E
:10110000EF92FF9260917200709173008091740071
:1011100090917500611571058105910521F464E2D6
:1011200079ED8BE597E02DE133EF41E050E00E944F
:101130007E0749015A019B01AC01A7EAB1E40E9474
:10114000D1086B017C01ACEEB4EFA50194010E94C3
:10115000DF08DC01CB018C0D9D1DAE1DBF1DB7FF4F
:1011600003C00197A109B048809372009093730067
:10117000A0937400B0937500BC01CD019F77FF90E0
:10118000EF90DF90CF90BF90AF909F908F90089599
:101190006093720070937300809374009093750055
:1011A00008950E94E408A59F900DB49F900DA49F00
:1011B000800D911D11240895B7FF0C94D1080E9451
:1011C000D108821B930B0895A29FB001B39FC00169
:1011D000A39F700D811D1124911DB29F700D811D63
:0A11E0001124911D0895F894FFCF2B
:1011EA00050B048C0092009E000380804080010061
:1011FA000000010000002D3E00202000596F7520DC
:10120A00646965642E2E2E2030303000536E616B77
:10121A006500466C79696E672062616C6C00546582
:04122A0073740000D9
:00000001FF
